{
  "_format": "hh3-artifact-1",
  "contractName": "ProxyMod",
  "sourceName": "contracts/mods/ProxyMod.sol",
  "abi": [
    {
      "inputs": [
        {
          "internalType": "address payable",
          "name": "_seller",
          "type": "address"
        }
      ],
      "stateMutability": "nonpayable",
      "type": "constructor"
    },
    {
      "inputs": [],
      "name": "CantUseCreatedHook",
      "type": "error"
    },
    {
      "inputs": [],
      "name": "InvalidAddressLength",
      "type": "error"
    },
    {
      "inputs": [],
      "name": "InvalidHexCharacter",
      "type": "error"
    },
    {
      "inputs": [
        {
          "internalType": "uint8",
          "name": "char",
          "type": "uint8"
        }
      ],
      "name": "InvalidTickerChar",
      "type": "error"
    },
    {
      "inputs": [
        {
          "internalType": "uint256",
          "name": "length",
          "type": "uint256"
        }
      ],
      "name": "InvalidTickerLength",
      "type": "error"
    },
    {
      "inputs": [],
      "name": "ModNotEnabledForMint",
      "type": "error"
    },
    {
      "inputs": [],
      "name": "NoFeeRequired",
      "type": "error"
    },
    {
      "inputs": [],
      "name": "TransferFailed",
      "type": "error"
    },
    {
      "inputs": [],
      "name": "UnknownHook",
      "type": "error"
    },
    {
      "stateMutability": "payable",
      "type": "fallback"
    },
    {
      "inputs": [
        {
          "internalType": "string",
          "name": "ticker",
          "type": "string"
        },
        {
          "internalType": "enum ITotemTypes.Hook[]",
          "name": "hooks",
          "type": "uint8[]"
        },
        {
          "internalType": "address",
          "name": "mod",
          "type": "address"
        },
        {
          "internalType": "address payable",
          "name": "referrer",
          "type": "address"
        }
      ],
      "name": "addMod",
      "outputs": [],
      "stateMutability": "payable",
      "type": "function"
    },
    {
      "inputs": [],
      "name": "getSeller",
      "outputs": [
        {
          "internalType": "address payable",
          "name": "",
          "type": "address"
        }
      ],
      "stateMutability": "view",
      "type": "function"
    },
    {
      "inputs": [
        {
          "internalType": "address",
          "name": "_totemsContract",
          "type": "address"
        },
        {
          "internalType": "address",
          "name": "_marketContract",
          "type": "address"
        }
      ],
      "name": "initialize",
      "outputs": [],
      "stateMutability": "nonpayable",
      "type": "function"
    },
    {
      "inputs": [],
      "name": "marketContract",
      "outputs": [
        {
          "internalType": "address",
          "name": "",
          "type": "address"
        }
      ],
      "stateMutability": "view",
      "type": "function"
    },
    {
      "inputs": [
        {
          "internalType": "string",
          "name": "ticker",
          "type": "string"
        },
        {
          "internalType": "address",
          "name": "minter",
          "type": "address"
        },
        {
          "internalType": "uint256",
          "name": "amount",
          "type": "uint256"
        },
        {
          "internalType": "string",
          "name": "memo",
          "type": "string"
        }
      ],
      "name": "mint",
      "outputs": [],
      "stateMutability": "payable",
      "type": "function"
    },
    {
      "inputs": [
        {
          "internalType": "string",
          "name": "ticker",
          "type": "string"
        },
        {
          "internalType": "address",
          "name": "owner",
          "type": "address"
        },
        {
          "internalType": "uint256",
          "name": "amount",
          "type": "uint256"
        },
        {
          "internalType": "string",
          "name": "memo",
          "type": "string"
        }
      ],
      "name": "onBurn",
      "outputs": [],
      "stateMutability": "nonpayable",
      "type": "function"
    },
    {
      "inputs": [
        {
          "internalType": "string",
          "name": "ticker",
          "type": "string"
        },
        {
          "internalType": "address",
          "name": "minter",
          "type": "address"
        },
        {
          "internalType": "uint256",
          "name": "amount",
          "type": "uint256"
        },
        {
          "internalType": "uint256",
          "name": "payment",
          "type": "uint256"
        },
        {
          "internalType": "string",
          "name": "memo",
          "type": "string"
        }
      ],
      "name": "onMint",
      "outputs": [],
      "stateMutability": "nonpayable",
      "type": "function"
    },
    {
      "inputs": [
        {
          "internalType": "string",
          "name": "ticker",
          "type": "string"
        },
        {
          "internalType": "address",
          "name": "from",
          "type": "address"
        },
        {
          "internalType": "address",
          "name": "to",
          "type": "address"
        },
        {
          "internalType": "uint256",
          "name": "amount",
          "type": "uint256"
        },
        {
          "internalType": "string",
          "name": "memo",
          "type": "string"
        }
      ],
      "name": "onTransfer",
      "outputs": [],
      "stateMutability": "nonpayable",
      "type": "function"
    },
    {
      "inputs": [
        {
          "internalType": "string",
          "name": "ticker",
          "type": "string"
        },
        {
          "internalType": "address",
          "name": "mod",
          "type": "address"
        }
      ],
      "name": "removeMod",
      "outputs": [],
      "stateMutability": "nonpayable",
      "type": "function"
    },
    {
      "inputs": [],
      "name": "totemsContract",
      "outputs": [
        {
          "internalType": "address",
          "name": "",
          "type": "address"
        }
      ],
      "stateMutability": "view",
      "type": "function"
    },
    {
      "inputs": [
        {
          "internalType": "uint256",
          "name": "",
          "type": "uint256"
        }
      ],
      "name": "totemsWithMods",
      "outputs": [
        {
          "internalType": "bytes32",
          "name": "",
          "type": "bytes32"
        }
      ],
      "stateMutability": "view",
      "type": "function"
    },
    {
      "stateMutability": "payable",
      "type": "receive"
    }
  ],
  "bytecode": "0x60803460c857601f6122d338819003918201601f19168301916001600160401b0383118484101760cc5780849260209460405283398101031260c857516001600160a01b03811680820360c857156083575f8054610100600160a81b03191660089290921b610100600160a81b03169190911790556040516121f290816100e18239f35b60405162461bcd60e51b815260206004820152601660248201527f496e76616c69642073656c6c65722061646472657373000000000000000000006044820152606490fd5b5f80fd5b634e487b7160e01b5f52604160045260245ffdfe60806040526004361015610010575b005b5f3560e01c806327a158d9146100bf578063310acfff146100ba578063485cc955146100b557806358a9c6d6146100b0578063648b9338146100ab578063a1794bcd146100a6578063a2aeb9d6146100a1578063a435f4f81461009c578063cb49c20914610097578063d86bcaee146100925763dbd0e1b60361000e5761093a565b610912565b61080e565b610717565b6106c7565b610671565b6105de565b610503565b610396565b610274565b610115565b9181601f840112156100f1578235916001600160401b0383116100f157602083818601950101116100f157565b5f80fd5b6001600160a01b038116036100f157565b60443590610113826100f5565b565b346100f15760a03660031901126100f1576004356001600160401b0381116100f1576101459036906004016100c4565b9060243591610153836100f5565b604435926064356084356001600160401b0381116100f1576101799036906004016100c4565b93906101b46101a360025461019760018060a01b038216331461097b565b6001600160a01b031690565b6101ae36858a610a6c565b9061195b565b6101da60016101d46101c6858a611aa6565b5f52600460205260405f2090565b01610aa2565b958651965f5b8881106101e957005b6102096101976101976101fc8486610af3565b516001600160a01b031690565b90813b156100f1575f888c9388838861023b8f8c8f6040519b8c998a9889976327a158d960e01b895260048901610b27565b03925af191821561026f57600192610255575b50016101e0565b806102635f610269936109f2565b80610667565b5f61024e565b610b6e565b346100f15760a03660031901126100f1576004356001600160401b0381116100f1576102a49036906004016100c4565b90602435916102b2836100f5565b604435926102bf846100f5565b6064356084356001600160401b0381116100f1576102e19036906004016100c4565b93906102ff6101a360025461019760018060a01b038216331461097b565b61031461030f6101c68489611aa6565b610aa2565b958651965f5b88811061032357005b6103366101976101976101fc8486610af3565b90813b156100f1575f888c938883886103688f8c8f6040519b8c998a98899763310acfff60e01b895260048901610b79565b03925af191821561026f57600192610382575b500161031a565b806102635f610390936109f2565b5f61037b565b346100f15760403660031901126100f1576004356103b3816100f5565b6024356103bf816100f5565b5f5460081c6001600160a01b0316330361045d5760025461000e9261043b916103f1906001600160a01b031615610bbf565b6104056001600160a01b0382161515610c01565b6104196001600160a01b0384161515610c4d565b60018060a01b03166bffffffffffffffffffffffff60a01b6002541617600255565b60018060a01b03166bffffffffffffffffffffffff60a01b6001541617600155565b60405162461bcd60e51b815260206004820152601a60248201527f4f6e6c792073656c6c65722063616e20696e697469616c697a650000000000006044820152606490fd5b60806003198201126100f1576004356001600160401b0381116100f157816104cc916004016100c4565b929092916024356104dc816100f5565b9160443591606435906001600160401b0382116100f1576104ff916004016100c4565b9091565b346100f157610511366104a2565b9361053e610533600297939594975461019760018060a01b038216331461097b565b6101ae368486610a6c565b61055060026101d46101c68486611aa6565b948551955f5b87811061055f57005b6105726101976101976101fc8486610af3565b90813b156100f1575f878b9387838a6105a38a8f6040519a8b9889978896632c54e36b60e11b885260048801610c99565b03925af191821561026f576001926105bd575b5001610556565b806102635f6105cb936109f2565b5f6105b6565b60643590610113826100f5565b60803660031901126100f1576004356001600160401b0381116100f1576106099036906004016100c4565b602435906001600160401b0382116100f157366023830112156100f15781600401356001600160401b0381116100f1573660248260051b850101116100f15761000e93610654610106565b92602461065f6105d1565b950191610cd8565b5f9103126100f157565b346100f1575f3660031901126100f1576001546040516001600160a01b039091168152602090f35b634e487b7160e01b5f52603260045260245ffd5b80548210156106c2575f5260205f2001905f90565b610699565b346100f15760203660031901126100f1576004356005548110156100f15760209060055f527f036b6384b5eca791c62761152d0c79bb0604c104a5fb6f4eb0703f3154bb3db00154604051908152f35b346100f15760403660031901126100f1576004356001600160401b0381116100f15761074a6107959136906004016100c4565b9060243591610758836100f5565b6002545f906001600160a01b0316610771368486610a6c565b906040518080988194630a05201d60e21b8352602060048401526024830190611cd9565b03915afa91821561026f576107c46107c99361000e965f916107ec575b50516001600160a01b0316331461191a565b611aa6565b6107d38282611cfd565b6107dd8282611def565b6107e78282611e85565b611f1b565b61080891503d805f833e61080081836109f2565b810190611467565b5f6107b2565b610817366104a2565b9390919461084261083760025461019760018060a01b038216331461097b565b6101ae368585610a6c565b610855610850368786610a6c565b612011565b6108ab6108a76108a08361088b61087d61086f8989611aa6565b5f52600360205260405f2090565b60015f5260205260405f2090565b9060018060a01b03165f5260205260405f2090565b5460ff1690565b1590565b610903576001600160a01b031692833b156100f1575f956108e3916040519889978896879663cb49c20960e01b885260048801610c99565b039134905af1801561026f576108f557005b806102635f61000e936109f2565b63196c814d60e11b5f5260045ffd5b346100f1575f3660031901126100f1576002546040516001600160a01b039091168152602090f35b346100f1575f3660031901126100f1575f5460081c6001600160a01b03168015610974575b6040516001600160a01b039091168152602090f35b503061095f565b1561098257565b60405162461bcd60e51b815260206004820152601460248201527313db9b1e48151bdd195b5cc818dbdb9d1c9858dd60621b6044820152606490fd5b634e487b7160e01b5f52604160045260245ffd5b608081019081106001600160401b038211176109ed57604052565b6109be565b90601f801991011681019081106001600160401b038211176109ed57604052565b6040519061011360a0836109f2565b6040519061011360e0836109f2565b60405190610113610120836109f2565b60405190610113610100836109f2565b6001600160401b0381116109ed57601f01601f191660200190565b929192610a7882610a51565b91610a8660405193846109f2565b8294818452818301116100f1578281602093845f960137010152565b90604051918281549182825260208201905f5260205f20925f5b818110610ad1575050610113925003836109f2565b84546001600160a01b0316835260019485019487945060209093019201610abc565b80518210156106c25760209160051b010190565b908060209392818452848401375f828201840152601f01601f1916010190565b92959390610b4390610b6b98969360a0865260a0860191610b07565b6001600160a01b03909616602084015260408301526060820152808403608090910152610b07565b90565b6040513d5f823e3d90fd5b92959390610b9590610b6b98969360a0865260a0860191610b07565b6001600160a01b039687166020850152951660408301526060820152808403608090910152610b07565b15610bc657565b60405162461bcd60e51b8152602060048201526013602482015272105b1c9958591e481a5b9a5d1a585b1a5e9959606a1b6044820152606490fd5b15610c0857565b60405162461bcd60e51b815260206004820152601760248201527f496e76616c696420746f74656d7320636f6e74726163740000000000000000006044820152606490fd5b15610c5457565b60405162461bcd60e51b815260206004820152601760248201527f496e76616c6964206d61726b657420636f6e74726163740000000000000000006044820152606490fd5b91610b6b969491610cb591969496608085526080850191610b07565b6001600160a01b0390951660208301526040820152808403606090910152610b07565b93929194905f5460ff81166110a05760ff19166001175f55600254610d05906001600160a01b0316610197565b600154610d1a906001600160a01b0316610197565b604051630a05201d60e21b81526001600160a01b039092169290915f8180610d46858c60048401611558565b0381875afa91821561026f57610d82610d7289946020945f91611086575b50516001600160a01b031690565b6001600160a01b03163314611569565b610d8c818a611aa6565b98610dab60405194859384936393e4238f60e01b8552600485016115d5565b0381865afa90811561026f575f91611057575b5061103f57604051630d0752db60e11b81526001600160a01b0386811660048301529190911690602081602481855afa90811561026f575f91611020575b50604051631711922960e31b81526001600160a01b038516600482015292602084602481845afa93841561026f575f94610fef575b50610e47610e3f8584611642565b34101561164f565b803b156100f15760405163397eda4960e11b8152600481018990526001600160a01b0388166024820152905f908290604490829084905af1801561026f57610fdb575b50604051636d0f528760e11b81526001600160a01b0387166004820152915f90839060249082905afa91821561026f575f92610fb7575b5080610f92575b505080610f6c575b50505b5f5b818110610eee57505050505061011360ff195f54165f55565b80610f04610eff60019385896118cc565b6118fa565b84610f276108a08261088b85610f228c5f52600360205260405f2090565b611904565b610f655781610f59610f4c8361088b610f5f96610f228d5f52600360205260405f2090565b805460ff19166001179055565b87611c41565b01610ed5565b5050610f5f565b610f84916001600160a01b03168015610f8b57611b9f565b5f80610ed0565b505f611b9f565b610fab6101976020610fb094015160018060a01b031690565b611b9f565b5f80610ec8565b610fd49192503d805f833e610fcc81836109f2565b81019061180c565b905f610ec1565b806102635f610fe9936109f2565b5f610e8a565b61101291945060203d602011611019575b61100a81836109f2565b8101906115fe565b925f610e31565b503d611000565b611039915060203d6020116110195761100a81836109f2565b5f610dfc565b5050503415610ed357630603415960e11b5f5260045ffd5b611079915060203d60201161107f575b61107181836109f2565b8101906115c1565b5f610dbe565b503d611067565b61109a91503d805f833e61080081836109f2565b5f610d64565b60405162461bcd60e51b815260206004820152601f60248201527f5265656e7472616e637947756172643a207265656e7472616e742063616c6c006044820152606490fd5b5190610113826100f5565b51906001600160401b03821682036100f157565b519081151582036100f157565b6001600160401b0381116109ed5760051b60200190565b81601f820112156100f15780519061113f82610a51565b9261114d60405194856109f2565b828452602083830101116100f157815f9260208093018386015e8301015290565b9080601f830112156100f15781519161118683611111565b9261119460405194856109f2565b80845260208085019160051b830101918383116100f15760208101915b8383106111c057505050505090565b82516001600160401b0381116100f1578201906080828703601f1901126100f157604051906111ee826109d2565b60208301516111fc816100f5565b825261120a60408401611104565b6020830152606083015160408301526080830151916001600160401b0383116100f15761123f88602080969581960101611128565b60608201528152019201916111b1565b9080601f830112156100f157815161126681611111565b9261127460405194856109f2565b81845260208085019260051b8201019283116100f157602001905b82821061129c5750505090565b6020809183516112ab816100f5565b81520191019061128f565b91909160a0818403126100f1576112cb610a13565b9281516001600160401b0381116100f157816112e891840161124f565b845260208201516001600160401b0381116100f1578161130991840161124f565b602085015260408201516001600160401b0381116100f1578161132d91840161124f565b604085015260608201516001600160401b0381116100f1578161135191840161124f565b606085015260808201516001600160401b0381116100f157611373920161124f565b6080830152565b519060ff821682036100f157565b91909160e0818403126100f15761139d610a22565b92815184526113ae6020830161137a565b602085015260408201516001600160401b0381116100f157816113d2918401611128565b604085015260608201516001600160401b0381116100f157816113f6918401611128565b606085015260808201516001600160401b0381116100f1578161141a918401611128565b608085015260a08201516001600160401b0381116100f1578161143e918401611128565b60a085015260c08201516001600160401b0381116100f1576114609201611128565b60c0830152565b6020818303126100f1578051906001600160401b0382116100f15701610120818303126100f157611496610a31565b916114a0826110e5565b83526114ae602083016110f0565b60208401526114bf604083016110f0565b60408401526114d060608301611104565b60608401526080820151608084015260a082015160a084015260c08201516001600160401b0381116100f1578161150891840161116e565b60c084015260e08201516001600160401b0381116100f1578161152c9184016112b6565b60e08401526101008201516001600160401b0381116100f15761154f9201611388565b61010082015290565b916020610b6b938181520191610b07565b1561157057565b60405162461bcd60e51b815260206004820152602360248201527f4f6e6c792074686520746f74656d2063726561746f722063616e20616464206d6044820152626f647360e81b6064820152608490fd5b908160209103126100f157610b6b90611104565b916020916115ee91959495604085526040850191610b07565b6001600160a01b03909416910152565b908160209103126100f1575190565b634e487b7160e01b5f52601160045260245ffd5b600201908160021161162f57565b61160d565b600301908160031161162f57565b9190820180921161162f57565b1561165657565b60405162461bcd60e51b815260206004820152601060248201526f496e73756666696369656e742066656560801b6044820152606490fd5b600511156100f157565b9080601f830112156100f15781516116af81611111565b926116bd60405194856109f2565b81845260208085019260051b8201019283116100f157602001905b8282106116e55750505090565b6020809183516116f48161168e565b8152019101906116d8565b919091610100818403126100f157611715610a41565b9281516001600160401b0381116100f15781611732918401611128565b845260208201516001600160401b0381116100f15781611753918401611128565b602085015260408201516001600160401b0381116100f15781611777918401611128565b604085015260608201516001600160401b0381116100f1578161179b918401611128565b606085015260808201516001600160401b0381116100f157816117bf918401611128565b608085015260a0820151916001600160401b0383116100f1576117e960e092611805948301611128565b60a08601526117fa60c08201611104565b60c086015201611104565b60e0830152565b6020818303126100f1578051906001600160401b0382116100f1570160e0818303126100f15761183a610a22565b91611844826110e5565b8352611852602083016110e5565b6020840152611863604083016110f0565b6040840152611874606083016110f0565b60608401526080820151608084015260a08201516001600160401b0381116100f157816118a2918401611698565b60a084015260c08201516001600160401b0381116100f1576118c492016116ff565b60c082015290565b91908110156106c25760051b0190565b600511156118e657565b634e487b7160e01b5f52602160045260245ffd5b35610b6b8161168e565b9060058110156118e6575f5260205260405f2090565b1561192157565b60405162461bcd60e51b815260206004820152601260248201527127b7363c903a37ba32b69031b932b0ba37b960711b6044820152606490fd5b6119859160209160405180809581946393e4238f60e01b8352604060048401526044830190611cd9565b30602483015203916001600160a01b03165afa801561026f576001915f916119ec575b501515036119b257565b60405162461bcd60e51b8152602060048201526012602482015271151bdd195b481b9bdd081b1a58d95b9cd95960721b6044820152606490fd5b611a05915060203d60201161107f5761107181836109f2565b5f6119a8565b90611a1582610a51565b611a2260405191826109f2565b8281528092611a33601f1991610a51565b0190602036910137565b908210156106c2570190565b60ff601f199116019060ff821161162f57565b60ff6040199116019060ff821161162f57565b60ff6060199116019060ff821161162f57565b60ff602f199116019060ff821161162f57565b9081518110156106c2570160200190565b81158015611b95575b611b8157611abc82611a0b565b915f5b818110611ad3575050506020815191012090565b611af8611af2611ae4838587611a3d565b356001600160f81b03191690565b60f81c90565b60ff811660618110159081611b75575b50611b67575b60ff811660418110908115611b5c575b50611b47576001919060f81b6001600160f81b0319165f1a611b408287611a95565b5301611abf565b63382d1a0b60e21b5f5260ff1660045260245ffd5b605a9150115f611b1e565b611b7090611a49565b611b0e565b607a915011155f611b08565b6309f2e61f60e31b5f52600482905260245ffd5b50600a8211611aaf565b5f918291829182916001600160a01b03165af13d15611bf0573d611bc281610a51565b90611bd060405192836109f2565b81525f60203d92013e5b15611be157565b6312171d8360e31b5f5260045ffd5b611bda565b90815491680100000000000000008310156109ed5782611c1d916001610113950181556106ad565b81546001600160a01b0393841660039290921b91821b9390911b1916919091179055565b611c53905f52600460205260405f2090565b90611c5d816118dc565b60038103611c7057509061011391611bf5565b611c79816118dc565b60018103611c8f57509060016101139201611bf5565b611c98816118dc565b60028103611cae57509060026101139201611bf5565b611cb7816118dc565b611cca57631e5685f760e21b5f5260045ffd5b634fbdbc6f60e01b5f5260045ffd5b805180835260209291819084018484015e5f828201840152601f01601f1916010190565b805f52600360205260ff611d198361088b600360405f20611904565b541615611deb5780611d50915f526003602052611d3e8361088b600360405f20611904565b805460ff191690556101c660036118dc565b80546001600160a01b03909216915f5b818110611d6e575b50505050565b83611d93611d7c83866106ad565b90546001600160a01b039260039290921b1c821690565b1614611da157600101611d60565b611de29350611c1d611dd6611dc1611dbb611ddd956120e1565b866106ad565b905460039190911b1c6001600160a01b031690565b91846106ad565b6120ef565b5f808080611d68565b5050565b805f52600360205260ff611e0b8361088b600160405f20611904565b541615611deb57611e4b816001925f526003602052611e318461088b8560405f20611904565b805460ff19169055611e42836118dc565b6101c6836118dc565b0180546001600160a01b03909216915f5b818110611e695750505050565b83611e77611d7c83866106ad565b1614611da157600101611e5c565b805f52600360205260ff611ea18361088b600260405f20611904565b541615611deb57611ee1816002925f526003602052611ec78461088b8560405f20611904565b805460ff19169055611ed8836118dc565b611e42836118dc565b0180546001600160a01b03909216915f5b818110611eff5750505050565b83611f0d611d7c83866106ad565b1614611da157600101611ef2565b805f52600360205260ff611f368361088b5f60408120611904565b541615611deb57611f87816003925f5282602052611f5b8461088b5f60408120611904565b805460ff19169055611f6c5f6118dc565b611f755f6118dc565b611f7e5f6118dc565b6101c65f6118dc565b0180546001600160a01b03909216915f5b818110611fa55750505050565b83611fb3611d7c83866106ad565b1614611da157600101611f98565b908160011b918083046002149015171561162f57565b60041b90610ff060f083169216820361162f57565b60ff16600a019060ff821161162f57565b9060ff8091169116019060ff821161162f57565b90602a8251036120d257604080519061202a81836109f2565b60148252601f19013660208301375f5b6014811061204b5750601401519150565b806120bf6120af61208f61208a61208561207761207161206c600199611fc1565b611621565b8b611a95565b516001600160f81b03191690565b61212f565b611fd7565b6120a96120856120776120716120a488611fc1565b611634565b90611ffd565b60f81b6001600160f81b03191690565b5f1a6120cb8285611a95565b530161203a565b636616760160e11b5f5260045ffd5b5f1981019190821161162f57565b8054801561211b575f19019061210582826106ad565b81549060018060a01b039060031b1b1916905555565b634e487b7160e01b5f52603160045260245ffd5b60f81c6030811015806121b1575b1561214b57610b6b90611a82565b6061811015806121a6575b1561216c57612167610b6b91611fec565b611a6f565b60418110158061219b575b61218a576372ac7c8d60e01b5f5260045ffd5b612196610b6b91611fec565b611a5c565b506046811115612177565b506066811115612156565b50603981111561213d56fea26469706673582212207143bf8f9fc6354f365afa51a2e09716df3a50608e613d7331226019c079586164736f6c634300081c0033",
  "linkReferences": {},
  "deployedLinkReferences": {},
  "immutableReferences": {},
  "inputSourceName": "project/contracts/mods/ProxyMod.sol",
  "buildInfoId": "solc-0_8_28-813de41d5af7a7078e25cb39688078cb60731cc6"
}