{"abi":[{"type":"constructor","inputs":[{"name":"_minBaseFee","type":"uint256","internalType":"uint256"},{"name":"_burnedFee","type":"uint256","internalType":"uint256"}],"stateMutability":"nonpayable"},{"type":"function","name":"burnedFee","inputs":[],"outputs":[{"name":"","type":"uint256","internalType":"uint256"}],"stateMutability":"view"},{"type":"function","name":"getFee","inputs":[{"name":"referrer","type":"address","internalType":"address"}],"outputs":[{"name":"","type":"uint256","internalType":"uint256"}],"stateMutability":"view"},{"type":"function","name":"getMod","inputs":[{"name":"mod","type":"address","internalType":"address"}],"outputs":[{"name":"","type":"tuple","internalType":"struct ITotemTypes.Mod","components":[{"name":"mod","type":"address","internalType":"address"},{"name":"seller","type":"address","internalType":"address payable"},{"name":"publishedAt","type":"uint64","internalType":"uint64"},{"name":"updatedAt","type":"uint64","internalType":"uint64"},{"name":"price","type":"uint256","internalType":"uint256"},{"name":"hooks","type":"uint8[]","internalType":"enum ITotemTypes.Hook[]"},{"name":"details","type":"tuple","internalType":"struct ITotemTypes.ModDetails","components":[{"name":"name","type":"string","internalType":"string"},{"name":"summary","type":"string","internalType":"string"},{"name":"markdown","type":"string","internalType":"string"},{"name":"image","type":"string","internalType":"string"},{"name":"website","type":"string","internalType":"string"},{"name":"websiteTickerPath","type":"string","internalType":"string"},{"name":"isMinter","type":"bool","internalType":"bool"},{"name":"needsUnlimited","type":"bool","internalType":"bool"}]}]}],"stateMutability":"view"},{"type":"function","name":"getModFee","inputs":[{"name":"mod","type":"address","internalType":"address"}],"outputs":[{"name":"","type":"uint256","internalType":"uint256"}],"stateMutability":"view"},{"type":"function","name":"getModRequiredActions","inputs":[{"name":"mod","type":"address","internalType":"address"}],"outputs":[{"name":"","type":"tuple[]","internalType":"struct ITotemTypes.ModRequiredAction[]","components":[{"name":"signature","type":"string","internalType":"string"},{"name":"inputFields","type":"tuple[]","internalType":"struct ITotemTypes.ModActionField[]","components":[{"name":"name","type":"string","internalType":"string"},{"name":"mode","type":"uint8","internalType":"enum ITotemTypes.ModActionFieldInputMode"},{"name":"value","type":"string","internalType":"string"},{"name":"description","type":"string","internalType":"string"},{"name":"min","type":"uint256","internalType":"uint256"},{"name":"max","type":"uint256","internalType":"uint256"},{"name":"isTotems","type":"bool","internalType":"bool"}]},{"name":"cost","type":"uint256","internalType":"uint256"},{"name":"reason","type":"string","internalType":"string"}]}],"stateMutability":"view"},{"type":"function","name":"getMods","inputs":[{"name":"contracts","type":"address[]","internalType":"address[]"}],"outputs":[{"name":"","type":"tuple[]","internalType":"struct ITotemTypes.Mod[]","components":[{"name":"mod","type":"address","internalType":"address"},{"name":"seller","type":"address","internalType":"address payable"},{"name":"publishedAt","type":"uint64","internalType":"uint64"},{"name":"updatedAt","type":"uint64","internalType":"uint64"},{"name":"price","type":"uint256","internalType":"uint256"},{"name":"hooks","type":"uint8[]","internalType":"enum ITotemTypes.Hook[]"},{"name":"details","type":"tuple","internalType":"struct ITotemTypes.ModDetails","components":[{"name":"name","type":"string","internalType":"string"},{"name":"summary","type":"string","internalType":"string"},{"name":"markdown","type":"string","internalType":"string"},{"name":"image","type":"string","internalType":"string"},{"name":"website","type":"string","internalType":"string"},{"name":"websiteTickerPath","type":"string","internalType":"string"},{"name":"isMinter","type":"bool","internalType":"bool"},{"name":"needsUnlimited","type":"bool","internalType":"bool"}]}]}],"stateMutability":"view"},{"type":"function","name":"getModsFee","inputs":[{"name":"contracts","type":"address[]","internalType":"address[]"}],"outputs":[{"name":"","type":"uint256","internalType":"uint256"}],"stateMutability":"view"},{"type":"function","name":"getSupportedHooks","inputs":[{"name":"mod","type":"address","internalType":"address"}],"outputs":[{"name":"","type":"uint8[]","internalType":"enum ITotemTypes.Hook[]"}],"stateMutability":"view"},{"type":"function","name":"isUnlimitedMinter","inputs":[{"name":"mod","type":"address","internalType":"address"}],"outputs":[{"name":"","type":"bool","internalType":"bool"}],"stateMutability":"view"},{"type":"function","name":"listMods","inputs":[{"name":"perPage","type":"uint32","internalType":"uint32"},{"name":"cursor","type":"uint256","internalType":"uint256"}],"outputs":[{"name":"mods_","type":"tuple[]","internalType":"struct ITotemTypes.Mod[]","components":[{"name":"mod","type":"address","internalType":"address"},{"name":"seller","type":"address","internalType":"address payable"},{"name":"publishedAt","type":"uint64","internalType":"uint64"},{"name":"updatedAt","type":"uint64","internalType":"uint64"},{"name":"price","type":"uint256","internalType":"uint256"},{"name":"hooks","type":"uint8[]","internalType":"enum ITotemTypes.Hook[]"},{"name":"details","type":"tuple","internalType":"struct ITotemTypes.ModDetails","components":[{"name":"name","type":"string","internalType":"string"},{"name":"summary","type":"string","internalType":"string"},{"name":"markdown","type":"string","internalType":"string"},{"name":"image","type":"string","internalType":"string"},{"name":"website","type":"string","internalType":"string"},{"name":"websiteTickerPath","type":"string","internalType":"string"},{"name":"isMinter","type":"bool","internalType":"bool"},{"name":"needsUnlimited","type":"bool","internalType":"bool"}]}]},{"name":"nextCursor","type":"uint256","internalType":"uint256"},{"name":"hasMore","type":"bool","internalType":"bool"}],"stateMutability":"view"},{"type":"function","name":"minBaseFee","inputs":[],"outputs":[{"name":"","type":"uint256","internalType":"uint256"}],"stateMutability":"view"},{"type":"function","name":"modList","inputs":[{"name":"","type":"uint256","internalType":"uint256"}],"outputs":[{"name":"","type":"address","internalType":"address"}],"stateMutability":"view"},{"type":"function","name":"publish","inputs":[{"name":"mod","type":"address","internalType":"address"},{"name":"hooks","type":"uint8[]","internalType":"enum ITotemTypes.Hook[]"},{"name":"price","type":"uint256","internalType":"uint256"},{"name":"details","type":"tuple","internalType":"struct ITotemTypes.ModDetails","components":[{"name":"name","type":"string","internalType":"string"},{"name":"summary","type":"string","internalType":"string"},{"name":"markdown","type":"string","internalType":"string"},{"name":"image","type":"string","internalType":"string"},{"name":"website","type":"string","internalType":"string"},{"name":"websiteTickerPath","type":"string","internalType":"string"},{"name":"isMinter","type":"bool","internalType":"bool"},{"name":"needsUnlimited","type":"bool","internalType":"bool"}]},{"name":"requiredActions","type":"tuple[]","internalType":"struct ITotemTypes.ModRequiredAction[]","components":[{"name":"signature","type":"string","internalType":"string"},{"name":"inputFields","type":"tuple[]","internalType":"struct ITotemTypes.ModActionField[]","components":[{"name":"name","type":"string","internalType":"string"},{"name":"mode","type":"uint8","internalType":"enum ITotemTypes.ModActionFieldInputMode"},{"name":"value","type":"string","internalType":"string"},{"name":"description","type":"string","internalType":"string"},{"name":"min","type":"uint256","internalType":"uint256"},{"name":"max","type":"uint256","internalType":"uint256"},{"name":"isTotems","type":"bool","internalType":"bool"}]},{"name":"cost","type":"uint256","internalType":"uint256"},{"name":"reason","type":"string","internalType":"string"}]},{"name":"referrer","type":"address","internalType":"address payable"}],"outputs":[],"stateMutability":"payable"},{"type":"function","name":"setReferrerFee","inputs":[{"name":"fee","type":"uint256","internalType":"uint256"}],"outputs":[],"stateMutability":"nonpayable"},{"type":"function","name":"update","inputs":[{"name":"mod","type":"address","internalType":"address"},{"name":"newPrice","type":"uint256","internalType":"uint256"},{"name":"details","type":"tuple","internalType":"struct ITotemTypes.ModDetails","components":[{"name":"name","type":"string","internalType":"string"},{"name":"summary","type":"string","internalType":"string"},{"name":"markdown","type":"string","internalType":"string"},{"name":"image","type":"string","internalType":"string"},{"name":"website","type":"string","internalType":"string"},{"name":"websiteTickerPath","type":"string","internalType":"string"},{"name":"isMinter","type":"bool","internalType":"bool"},{"name":"needsUnlimited","type":"bool","internalType":"bool"}]}],"outputs":[],"stateMutability":"nonpayable"},{"type":"function","name":"updateRequiredActions","inputs":[{"name":"mod","type":"address","internalType":"address"},{"name":"requiredActions","type":"tuple[]","internalType":"struct ITotemTypes.ModRequiredAction[]","components":[{"name":"signature","type":"string","internalType":"string"},{"name":"inputFields","type":"tuple[]","internalType":"struct ITotemTypes.ModActionField[]","components":[{"name":"name","type":"string","internalType":"string"},{"name":"mode","type":"uint8","internalType":"enum ITotemTypes.ModActionFieldInputMode"},{"name":"value","type":"string","internalType":"string"},{"name":"description","type":"string","internalType":"string"},{"name":"min","type":"uint256","internalType":"uint256"},{"name":"max","type":"uint256","internalType":"uint256"},{"name":"isTotems","type":"bool","internalType":"bool"}]},{"name":"cost","type":"uint256","internalType":"uint256"},{"name":"reason","type":"string","internalType":"string"}]}],"outputs":[],"stateMutability":"nonpayable"},{"type":"event","name":"ModPublished","inputs":[{"name":"mod","type":"address","indexed":true,"internalType":"address"}],"anonymous":false},{"type":"event","name":"ModUpdated","inputs":[{"name":"mod","type":"address","indexed":true,"internalType":"address"}],"anonymous":false},{"type":"error","name":"DuplicateHook","inputs":[{"name":"hook","type":"uint8","internalType":"enum ITotemTypes.Hook"}]},{"type":"error","name":"EmptyModImage","inputs":[]},{"type":"error","name":"EmptyModName","inputs":[]},{"type":"error","name":"EmptyModSummary","inputs":[]},{"type":"error","name":"InsufficientFee","inputs":[{"name":"required","type":"uint256","internalType":"uint256"},{"name":"provided","type":"uint256","internalType":"uint256"}]},{"type":"error","name":"InvalidContractAddress","inputs":[]},{"type":"error","name":"InvalidHook","inputs":[{"name":"hook","type":"uint8","internalType":"enum ITotemTypes.Hook"}]},{"type":"error","name":"ModAlreadyPublished","inputs":[{"name":"mod","type":"address","internalType":"address"}]},{"type":"error","name":"ModNameTooLong","inputs":[{"name":"length","type":"uint256","internalType":"uint256"}]},{"type":"error","name":"ModNameTooShort","inputs":[{"name":"length","type":"uint256","internalType":"uint256"}]},{"type":"error","name":"ModNotFound","inputs":[{"name":"mod","type":"address","internalType":"address"}]},{"type":"error","name":"ModSummaryTooLong","inputs":[{"name":"length","type":"uint256","internalType":"uint256"}]},{"type":"error","name":"ModSummaryTooShort","inputs":[{"name":"length","type":"uint256","internalType":"uint256"}]},{"type":"error","name":"NoHooksSpecified","inputs":[]},{"type":"error","name":"ReferrerFeeTooLow","inputs":[{"name":"minFee","type":"uint256","internalType":"uint256"}]},{"type":"error","name":"TransferFailed","inputs":[]},{"type":"error","name":"Unauthorized","inputs":[]}],"bytecode":{"object":"0x60c03461013457601f61397838819003918201601f19168301916001600160401b0383118484101761013857808492604094855283398101031261013457602081519101519080156100ef5780821161009c5760805260a05260405161382b908161014d82396080518181816104120152818161059c01528181611532015281816135ca01526135fe015260a051818181610e9a01526110970152f35b60405162461bcd60e51b815260206004820152602560248201527f4275726e6564206665652063616e6e6f7420657863656564206d696e20626173604482015264652066656560d81b6064820152608490fd5b60405162461bcd60e51b815260206004820152601460248201527f496e76616c6964206d696e2062617365206665650000000000000000000000006044820152606490fd5b5f80fd5b634e487b7160e01b5f52604160045260245ffdfe6080806040526004361015610012575f80fd5b5f3560e01c9081631a0ea5b614612155575080632071a2d21461211357806345296b3814611f45578063532efe051461183757806355344713146116695780635c77f8391461163c5780639124b8af14611555578063a62611a21461151b578063b88c9148146114f0578063d391420d146112b7578063d4c4b40214611215578063da1ea50e146110ba578063e1a267e514611080578063f3f0e07b1461045c578063f81a95db146103fc5763fdf3c55a146100cc575f80fd5b346103f85760203660031901126103f8576001600160a01b036100ed6121be565b165f818152600260205260409020546001600160a01b0316156103e6575f52600360205260405f2080549061012182612478565b9161012f6040519384612457565b808352602083019081925f5260205f205f925b8284106102b35785856040519060208201926020835251809352604082019260408160051b84010191905f5b81811061017b5784840385f35b909192603f1985820301865283519061019d825160808352608083019061221b565b916020810151928281036020840152835180825260208201906020808260051b8501019601925f905b8282106102085750505050506101f96001936020936060846040879601516040840152015190606081840391015261221b565b9501960191019491909461016e565b9091929396601f19828203018552875161022b815160e0845260e084019061221b565b90602081015190600382101561029f578360c08061027461026260209788978860019b01526040870151868203604088015261221b565b6060860151858203606087015261221b565b936080810151608085015260a081015160a085015201511515910152990195019201909291926101c6565b634e487b7160e01b5f52602160045260245ffd5b604051608081018181106001600160401b038211176103d2576040526102d883612d0f565b8152600183018054906102ea82612478565b916102f86040519384612457565b80835260208301915f5260205f205f925b82841061034a5750505050600192826020928360049501526002860154604082015261033760038701612d0f565b6060820152815201920193019290610142565b60405161035681612420565b61035f83612d0f565b815260ff600184015416600381101561029f576001928260209283600795015261038b60028701612d0f565b604082015261039c60038701612d0f565b606082015260048601546080820152600586015460a082015260ff600687015416151560c0820152815201920193019290610309565b634e487b7160e01b5f52604160045260245ffd5b633bdb61c960e01b5f5260045260245ffd5b5f80fd5b346103f85760203660031901126103f8576004357f000000000000000000000000000000000000000000000000000000000000000080821061044a5750335f52600160205260405f20555f80f35b634eda71b160e11b5f5260045260245ffd5b60c03660031901126103f8576104706121be565b6024356001600160401b0381116103f85761048f9036906004016123d6565b90606435906001600160401b0382116103f8578160040161010060031984360301126103f8576084356001600160401b0381116103f8576104d49036906004016123d6565b93909260a4359560018060a01b0387168097036103f85760015f546104fc60ff821615612dad565b60ff1916175f556001600160a01b038816978815611071573b15611071575f888152600260205260409020546001600160a01b031661105e57604051636de870db60e11b8152926020846004818c5afa938415611053575f9461100f575b50336001600160a01b03851603611001576105748561362e565b8115610ff2575f5b828110610f15575087159788610f0f57805f52600160205260405f20545b7f000000000000000000000000000000000000000000000000000000000000000080821115610f075750985b893410610ef05715610e9557506105dc8861375b565b5f89815260026020526040902080546001600160a01b03199081168b1782556001820180549091166001600160a01b03969096169590951785556044356003820155946005860161062d8280612df9565b906001600160401b0382116103d2576106468354612cd7565b601f8111610e65575b505f90601f8311600114610e015761067e92915f9183610ba6575b50508160011b915f199060031b1c19161790565b90555b600686016106926024840183612df9565b906001600160401b0382116103d2576106ab8354612cd7565b601f8111610dd1575b505f90601f8311600114610d6d576106e292915f9183610ba65750508160011b915f199060031b1c19161790565b90555b600786016106f66044840183612df9565b906001600160401b0382116103d25761070f8354612cd7565b601f8111610d3d575b505f90601f8311600114610cd95761074692915f9183610ba65750508160011b915f199060031b1c19161790565b90555b6008860161075a6064840183612df9565b906001600160401b0382116103d2576107738354612cd7565b601f8111610ca9575b505f90601f8311600114610c45576107aa92915f9183610ba65750508160011b915f199060031b1c19161790565b90555b600986016107be6084840183612df9565b906001600160401b0382116103d2576107d78354612cd7565b601f8111610c15575b505f90601f8311600114610bb15761080e92915f9183610ba65750508160011b915f199060031b1c19161790565b90555b610823600a87019160a4840190612df9565b906001600160401b0382116103d25761083c8354612cd7565b601f8111610b6b575b505f90601f8311600114610b075761087392915f9183610afc5750508160011b915f199060031b1c19161790565b90555b6108a760e4600b8701926108a161088f60c48301612e41565b859060ff801983541691151516179055565b01612e41565b815461ff00191690151560081b61ff001617905560048401916001600160401b0382116103d257600160401b82116103d2578254828455808310610ab0575b50915f5260205f208160051c915f5b838110610a645750601f198116900380610a13575b505050509081600292546001600160401b0360a01b4260a01b16906001600160401b0360a01b1916179055016001600160401b03804216166001600160401b03198254161790555f5b8281106109ea5750506004549050600160401b8110156103d25780600161097d92016004556121d4565b81546001600160a01b0360039290921b91821b19169084901b1790553481106109d1575b507fe23b4bee3dd66029c0d9f4e9e65c3a106e886bbe10a46b27780762327eec62455f80a25f805460ff19169055005b6109de6109e49134612413565b336137b5565b816109a1565b600190855f526003602052610a0d60405f20610a07838787612e9c565b90612ebe565b01610953565b925f935f5b818110610a2e575050500155600287808061090a565b909194853560058110156103f857610a5a602091846001949060ff809160031b9316831b921b19161790565b9601929101610a18565b5f5f5b60208110610a7c5750838201556001016108f5565b9590813560058110156103f857610aa7602091896001949060ff809160031b9316831b921b19161790565b92019601610a67565b610adb90845f5260205f20601f80860160051c82019281871680610ae1575b500160051c0190612e2b565b896108e6565b5f198501908154905f199060200360031b1c1690558e610acf565b013590508d8061066a565b601f19831691845f5260205f20925f5b818110610b535750908460019594939210610b3a575b505050811b019055610876565b01355f19600384901b60f8161c191690558c8080610b2d565b91936020600181928787013581550195019201610b17565b610b9690845f5260205f20601f850160051c81019160208610610b9c575b601f0160051c0190612e2b565b8c610845565b9091508190610b89565b013590508e8061066a565b601f19831691845f5260205f20925f5b818110610bfd5750908460019594939210610be4575b505050811b019055610811565b01355f19600384901b60f8161c191690558d8080610bd7565b91936020600181928787013581550195019201610bc1565b610c3f90845f5260205f20601f850160051c81019160208610610b9c57601f0160051c0190612e2b565b8d6107e0565b601f19831691845f5260205f20925f5b818110610c915750908460019594939210610c78575b505050811b0190556107ad565b01355f19600384901b60f8161c191690558d8080610c6b565b91936020600181928787013581550195019201610c55565b610cd390845f5260205f20601f850160051c81019160208610610b9c57601f0160051c0190612e2b565b8d61077c565b601f19831691845f5260205f20925f5b818110610d255750908460019594939210610d0c575b505050811b019055610749565b01355f19600384901b60f8161c191690558d8080610cff565b91936020600181928787013581550195019201610ce9565b610d6790845f5260205f20601f850160051c81019160208610610b9c57601f0160051c0190612e2b565b8d610718565b601f19831691845f5260205f20925f5b818110610db95750908460019594939210610da0575b505050811b0190556106e5565b01355f19600384901b60f8161c191690558d8080610d93565b91936020600181928787013581550195019201610d7d565b610dfb90845f5260205f20601f850160051c81019160208610610b9c57601f0160051c0190612e2b565b8d6106b4565b601f19831691845f5260205f20925f5b818110610e4d5750908460019594939210610e34575b505050811b019055610681565b01355f19600384901b60f8161c191690558d8080610e27565b91936020600181928787013581550195019201610e11565b610e8f90845f5260205f20601f850160051c81019160208610610b9c57601f0160051c0190612e2b565b8d61064f565b610ec57f000000000000000000000000000000000000000000000000000000000000000080610ee2575b8a612413565b80610ed2575b50506105dc565b610edb916137b5565b8980610ecb565b610eeb8161375b565b610ebf565b8963a458261b60e01b5f526004523460245260445ffd5b9050986105c6565b5f61059a565b610f20818486613589565b3560058110156103f85760ff6004911611610fca5760018101808211610fb6575b838110610f51575060010161057c565b610f5c828587613589565b3560058110156103f857610f71828688613589565b359060058210156103f85714610f8957600101610f41565b610f94828587613589565b3560058110156103f8576306ca20fd60e51b5f52610fb190612200565b60245ffd5b634e487b7160e01b5f52601160045260245ffd5b610fd5908385613589565b3560058110156103f857633a20350360e11b5f52610fb190612200565b6377451ae960e01b5f5260045ffd5b6282b42960e81b5f5260045ffd5b9093506020813d60201161104b575b8161102b60209383612457565b810103126103f857516001600160a01b03811681036103f857928961055a565b3d915061101e565b6040513d5f823e3d90fd5b87636b03e38760e01b5f5260045260245ffd5b63a710429d60e01b5f5260045ffd5b346103f8575f3660031901126103f85760206040517f00000000000000000000000000000000000000000000000000000000000000008152f35b346103f85760203660031901126103f8576110d36121be565b6110db61248f565b506001600160a01b039081165f81815260026020526040902054909116156103e6575f52600260205261121160405f206040519061111882612420565b80546001600160a01b0390811683526001820154908116602084015260a01c6001600160401b03908116604084015260028201541660608301526003810154608083015261116860048201612566565b60a083015260ff600b6040519261117e8461243b565b61118a60058201612d0f565b845261119860068201612d0f565b60208501526111a960078201612d0f565b60408501526111ba60088201612d0f565b60608501526111cb60098201612d0f565b60808501526111dc600a8201612d0f565b60a08501520154818116151560c084015260081c16151560e082015260c082015260405191829160208352602083019061223f565b0390f35b346103f85760203660031901126103f8576001600160a01b036112366121be565b165f818152600260205260409020546001600160a01b0316156103e6575f526002602052611269600460405f2001612566565b6040518091602082016020835281518091526020604084019201905f5b818110611294575050500390f35b91935091602080826112a9600194885161220e565b019401910191849392611286565b346103f85760203660031901126103f8576004356001600160401b0381116103f8576112e79036906004016123d6565b5f5f5b8281106114a157506112fb90612503565b915f5f5b83811061131c57604051602080825281906112119082018861237e565b6001600160a01b03611337611332838787613589565b613599565b165f908152600260205260409020546001600160a01b031661135c575b6001016112ff565b90600190611499906001600160a01b0361137a611332868989613589565b165f52600260205260405f206040519061139382612420565b848060a01b0381541682526001600160401b0385820154868060a01b038116602085015260a01c1660408301526001600160401b036002820154166060830152600381015460808301526113e960048201612566565b60a083015260ff600b604051926113ff8461243b565b61140b60058201612d0f565b845261141960068201612d0f565b602085015261142a60078201612d0f565b604085015261143b60088201612d0f565b606085015261144c60098201612d0f565b608085015261145d600a8201612d0f565b60a08501520154818116151560c084015260081c16151560e082015260c08201526114888289612552565b526114938188612552565b50613620565b919050611354565b6001600160a01b036114b7611332838688613589565b165f908152600260205260409020546001600160a01b03166114dc575b6001016112ea565b906114e8600191613620565b9190506114d4565b346103f85760203660031901126103f857602061151361150e6121be565b6135ad565b604051908152f35b346103f8575f3660031901126103f85760206040517f00000000000000000000000000000000000000000000000000000000000000008152f35b346103f85760203660031901126103f8576004356001600160401b0381116103f8576115859036906004016123d6565b5f905f925b81841061159c57602083604051908152f35b90916001600160a01b036115b4611332868686613589565b165f908152600260205260409020546001600160a01b03161561160e57600190611604906001600160a01b036115ee611332888888613589565b165f526002602052600360405f20015490612406565b930192919061158a565b61161c611332858585613589565b633bdb61c960e01b5f9081526001600160a01b0391909116600452602490fd5b346103f85760203660031901126103f857602061165f61165a6121be565b613541565b6040519015158152f35b346103f85760403660031901126103f8576116826121be565b6024356001600160401b0381116103f8576116a19036906004016123d6565b6001600160a01b039283165f8181526002602052604090208054919490939116156118245760018301546001600160a01b0316330361100157835f52600360205260405f208054905f815581611765575b50505f5b8281106117425760028401805467ffffffffffffffff1916426001600160401b0316179055847fccd73d5c00c933c14ae40184aa6331bed6477c7a0522553a55311aad2ad8784b5f80a2005b600190855f52600360205261175f60405f20610a07838787612e9c565b016116f6565b6001600160fe1b0382168203610fb6575f5260205f209060021b8101905b818110156116f25761179481612e4e565b600181018054905f8155816117c1575b5050805f600260049301556117bb60038201612e4e565b01611783565b81600702916007830403610fb6575f5260205f20908101905b818110156117a457806117ee600792612e4e565b5f600182015561180060028201612e4e565b61180c60038201612e4e565b5f60048201555f60058201555f6006820155016117da565b83633bdb61c960e01b5f5260045260245ffd5b346103f85760603660031901126103f8576118506121be565b6044356001600160401b0381116103f857806004019161010060031983360301126103f85760015f5461188660ff821615612dad565b60ff1916175f9081556001600160a01b039182168082526002602052604090912080549193909290911615611f325760018201546001600160a01b03163303611001576118d28461362e565b6024356003830155600582016118e88580612df9565b906001600160401b0382116103d2576119018354612cd7565b601f8111611f02575b505f90601f8311600114611e9e5761193892915f9183611bac5750508160011b915f199060031b1c19161790565b90555b6006820161194c6024830186612df9565b906001600160401b0382116103d2576119658354612cd7565b601f8111611e6e575b505f90601f8311600114611e0a5761199c92915f9183611bac5750508160011b915f199060031b1c19161790565b90555b600782016119b06044830186612df9565b906001600160401b0382116103d2576119c98354612cd7565b601f8111611dda575b505f90601f8311600114611d7657611a0092915f9183611bac5750508160011b915f199060031b1c19161790565b90555b60088201611a146064830186612df9565b906001600160401b0382116103d257611a2d8354612cd7565b601f8111611d46575b505f90601f8311600114611ce257611a6492915f9183611bac5750508160011b915f199060031b1c19161790565b90555b60098201611a786084830186612df9565b906001600160401b0382116103d257611a918354612cd7565b601f8111611cb2575b505f90601f8311600114611c4e57611ac892915f9183611bac5750508160011b915f199060031b1c19161790565b90555b611add600a83019460a4830190612df9565b94906001600160401b0386116103d257611af78254612cd7565b601f8111611c1e575b505f90601f8711600114611bb7579580611b3292600297985f92611bac5750508160011b915f199060031b1c19161790565b90555b611b4e60e4600b8401926108a161088f60c48301612e41565b815461ff00191690151560081b61ff001617905501805467ffffffffffffffff1916426001600160401b03161790557fccd73d5c00c933c14ae40184aa6331bed6477c7a0522553a55311aad2ad8784b5f80a25f805460ff19169055005b01359050888061066a565b601f19871691835f5260205f20925f5b818110611c0657509160019391896002999a9410611bed575b505050811b019055611b35565b01355f19600384901b60f8161c19169055878080611be0565b91936020600181928787013581550195019201611bc7565b611c4890835f5260205f20601f890160051c81019160208a10610b9c57601f0160051c0190612e2b565b86611b00565b601f19831691845f5260205f20925f5b818110611c9a5750908460019594939210611c81575b505050811b019055611acb565b01355f19600384901b60f8161c19169055878080611c74565b91936020600181928787013581550195019201611c5e565b611cdc90845f5260205f20601f850160051c81019160208610610b9c57601f0160051c0190612e2b565b87611a9a565b601f19831691845f5260205f20925f5b818110611d2e5750908460019594939210611d15575b505050811b019055611a67565b01355f19600384901b60f8161c19169055878080611d08565b91936020600181928787013581550195019201611cf2565b611d7090845f5260205f20601f850160051c81019160208610610b9c57601f0160051c0190612e2b565b87611a36565b601f19831691845f5260205f20925f5b818110611dc25750908460019594939210611da9575b505050811b019055611a03565b01355f19600384901b60f8161c19169055878080611d9c565b91936020600181928787013581550195019201611d86565b611e0490845f5260205f20601f850160051c81019160208610610b9c57601f0160051c0190612e2b565b876119d2565b601f19831691845f5260205f20925f5b818110611e565750908460019594939210611e3d575b505050811b01905561199f565b01355f19600384901b60f8161c19169055878080611e30565b91936020600181928787013581550195019201611e1a565b611e9890845f5260205f20601f850160051c81019160208610610b9c57601f0160051c0190612e2b565b8761196e565b601f19831691845f5260205f20925f5b818110611eea5750908460019594939210611ed1575b505050811b01905561193b565b01355f19600384901b60f8161c19169055878080611ec4565b91936020600181928787013581550195019201611eae565b611f2c90845f5260205f20601f850160051c81019160208610610b9c57601f0160051c0190612e2b565b8761190a565b82633bdb61c960e01b5f5260045260245ffd5b346103f85760403660031901126103f85760043563ffffffff81168091036103f857611f746024359182612406565b906004549182811161210c575b611f8b8282612413565b611f9481612503565b925f5b828110611fca57505050611fb99260405193849360608552606085019061237e565b918060208501521060408301520390f35b80611fdf611fda60019385612406565b6121d4565b838060a01b0391549060031b1c165f52600260205260405f206040519061200582612420565b838060a01b0381541682526001600160401b0384820154858060a01b038116602085015260a01c1660408301526001600160401b0360028201541660608301526003810154608083015261205b60048201612566565b60a083015260ff600b604051926120718461243b565b61207d60058201612d0f565b845261208b60068201612d0f565b602085015261209c60078201612d0f565b60408501526120ad60088201612d0f565b60608501526120be60098201612d0f565b60808501526120cf600a8201612d0f565b60a08501520154818116151560c084015260081c16151560e082015260c08201526120fa8288612552565b526121058187612552565b5001611f97565b5081611f81565b346103f85760203660031901126103f8576004356004548110156103f85761213c6020916121d4565b905460405160039290921b1c6001600160a01b03168152f35b346103f85760203660031901126103f8576001600160a01b036121766121be565b165f818152600260205260409020549091906001600160a01b0316156121ab576020915f5260028252600360405f2001548152f35b50633bdb61c960e01b5f5260045260245ffd5b600435906001600160a01b03821682036103f857565b6004548110156121ec5760045f5260205f2001905f90565b634e487b7160e01b5f52603260045260245ffd5b600581101561029f57600452565b90600582101561029f5752565b805180835260209291819084018484015e5f828201840152601f01601f1916010190565b60e082019060018060a01b03815116835260018060a01b0360208201511660208401526001600160401b0360408201511660408401526001600160401b0360608201511660608401526080810151608084015260a08101519160e060a08501528251809152602061010085019301905f5b81811061235f5750505060c001519160c081830391015260e0806123486123366123246123126123006122ee89516101008a526101008a019061221b565b60208a015189820360208b015261221b565b604089015188820360408a015261221b565b6060880151878203606089015261221b565b6080870151868203608088015261221b565b60a086015185820360a087015261221b565b9360c0810151151560c08501520151151591015290565b90919360208082612373600194895161220e565b0195019291016122b0565b9080602083519182815201916020808360051b8301019401925f915b8383106123a957505050505090565b90919293946020806123c7600193601f19868203018752895161223f565b9701930193019193929061239a565b9181601f840112156103f8578235916001600160401b0383116103f8576020808501948460051b0101116103f857565b91908201809211610fb657565b91908203918211610fb657565b60e081019081106001600160401b038211176103d257604052565b61010081019081106001600160401b038211176103d257604052565b90601f801991011681019081106001600160401b038211176103d257604052565b6001600160401b0381116103d25760051b60200190565b6040519061249c82612420565b815f81525f60208201525f60408201525f60608201525f6080820152606060a082015260c0604051916124ce8361243b565b60608352606060208401526060604084015260608084015260606080840152606060a08401525f828401525f60e08401520152565b9061250d82612478565b61251a6040519182612457565b828152809261252b601f1991612478565b01905f5b82811061253b57505050565b60209061254661248f565b8282850101520161252f565b80518210156121ec5760209160051b010190565b90604051918281549182825260208201905f5260205f20925f905b80601f830110612a4e57612697945491818110612a33575b818110612a15575b8181106129f7575b8181106129d9575b8181106129bc575b81811061299e575b818110612980575b818110612962575b818110612944575b818110612926575b818110612908575b8181106128ea575b8181106128cc575b8181106128ae575b818110612890575b818110612872575b818110612854575b818110612836575b818110612818575b8181106127fa575b8181106127dc575b8181106127be575b8181106127a0575b818110612782575b818110612764575b818110612746575b818110612728575b81811061270a575b8181106126ec575b8181106126ce575b8181106126b0575b10612699575b500383612457565b565b906126a98160209360f81c61220e565b015f61268f565b926020816126c660019360ff8760f01c1661220e565b019301612689565b926020816126e460019360ff8760e81c1661220e565b019301612681565b9260208161270260019360ff8760e01c1661220e565b019301612679565b9260208161272060019360ff8760d81c1661220e565b019301612671565b9260208161273e60019360ff8760d01c1661220e565b019301612669565b9260208161275c60019360ff8760c81c1661220e565b019301612661565b9260208161277a60019360ff8760c01c1661220e565b019301612659565b9260208161279860019360ff8760b81c1661220e565b019301612651565b926020816127b660019360ff8760b01c1661220e565b019301612649565b926020816127d460019360ff8760a81c1661220e565b019301612641565b926020816127f260019360ff8760a01c1661220e565b019301612639565b9260208161281060019360ff8760981c1661220e565b019301612631565b9260208161282e60019360ff8760901c1661220e565b019301612629565b9260208161284c60019360ff8760881c1661220e565b019301612621565b9260208161286a60019360ff8760801c1661220e565b019301612619565b9260208161288860019360ff8760781c1661220e565b019301612611565b926020816128a660019360ff8760701c1661220e565b019301612609565b926020816128c460019360ff8760681c1661220e565b019301612601565b926020816128e260019360ff8760601c1661220e565b0193016125f9565b9260208161290060019360ff8760581c1661220e565b0193016125f1565b9260208161291e60019360ff8760501c1661220e565b0193016125e9565b9260208161293c60019360ff8760481c1661220e565b0193016125e1565b9260208161295a60019360ff8760401c1661220e565b0193016125d9565b9260208161297860019360ff8760381c1661220e565b0193016125d1565b9260208161299660019360ff8760301c1661220e565b0193016125c9565b926020816129b460019360ff8760281c1661220e565b0193016125c1565b926020816129d160019360ff87851c1661220e565b0193016125b9565b926020816129ef60019360ff8760181c1661220e565b0193016125b1565b92602081612a0d60019360ff8760101c1661220e565b0193016125a9565b92602081612a2b60019360ff8760081c1661220e565b0193016125a1565b92602081612a4660019360ff871661220e565b019301612599565b916020919350610400600191612cc98754612a6c8360ff831661220e565b612a7e86840160ff8360081c1661220e565b612a916040840160ff8360101c1661220e565b612aa46060840160ff8360181c1661220e565b612ab66080840160ff83891c1661220e565b612ac960a0840160ff8360281c1661220e565b612adc60c0840160ff8360301c1661220e565b612aef60e0840160ff8360381c1661220e565b612b03610100840160ff8360401c1661220e565b612b17610120840160ff8360481c1661220e565b612b2b610140840160ff8360501c1661220e565b612b3f610160840160ff8360581c1661220e565b612b53610180840160ff8360601c1661220e565b612b676101a0840160ff8360681c1661220e565b612b7b6101c0840160ff8360701c1661220e565b612b8f6101e0840160ff8360781c1661220e565b612ba3610200840160ff8360801c1661220e565b612bb7610220840160ff8360881c1661220e565b612bcb610240840160ff8360901c1661220e565b612bdf610260840160ff8360981c1661220e565b612bf3610280840160ff8360a01c1661220e565b612c076102a0840160ff8360a81c1661220e565b612c1b6102c0840160ff8360b01c1661220e565b612c2f6102e0840160ff8360b81c1661220e565b612c43610300840160ff8360c01c1661220e565b612c57610320840160ff8360c81c1661220e565b612c6b610340840160ff8360d01c1661220e565b612c7f610360840160ff8360d81c1661220e565b612c93610380840160ff8360e01c1661220e565b612ca76103a0840160ff8360e81c1661220e565b612cbb6103c0840160ff8360f01c1661220e565b6103e083019060f81c61220e565b019401920185929391612581565b90600182811c92168015612d05575b6020831014612cf157565b634e487b7160e01b5f52602260045260245ffd5b91607f1691612ce6565b9060405191825f825492612d2284612cd7565b8084529360018116908115612d8b5750600114612d47575b5061269792500383612457565b90505f9291925260205f20905f915b818310612d6f575050906020612697928201015f612d3a565b6020919350806001915483858901015201910190918492612d56565b90506020925061269794915060ff191682840152151560051b8201015f612d3a565b15612db457565b60405162461bcd60e51b815260206004820152601f60248201527f5265656e7472616e637947756172643a207265656e7472616e742063616c6c006044820152606490fd5b903590601e19813603018212156103f857018035906001600160401b0382116103f8576020019181360383136103f857565b818110612e36575050565b5f8155600101612e2b565b3580151581036103f85790565b612e588154612cd7565b9081612e62575050565b81601f5f9311600114612e73575055565b81835260208320612e8f91601f0160051c810190600101612e2b565b8082528160208120915555565b91908110156121ec5760051b81013590607e19813603018212156103f8570190565b805490600160401b8210156103d257600182018082558210156121ec575f5260205f209060021b0191612ef18280612df9565b6001600160401b0381959295116103d257612f0c8254612cd7565b601f8111613511575b505f601f82116001146134ae578190612f45939495965f9261302f5750508160011b915f199060031b1c19161790565b81555b600181016020840135601e19853603018112156103f857840180356001600160401b0381116103f857602082018160051b360381136103f857600160401b82116103d2578354828555808310613436575b505f938452602084209391923681900360fe1901915b8484106130c9575050505050506003612fd8916040850135600282015501926060810190612df9565b6001600160401b0381949294116103d257612ff38254612cd7565b601f8111613099575b505f601f821160011461303a57819061302b9394955f9261302f5750508160011b915f199060031b1c19161790565b9055565b013590505f8061066a565b601f19821694835f5260205f20915f5b878110613081575083600195969710613068575b505050811b019055565b01355f19600384901b60f8161c191690555f808061305e565b9092602060018192868601358155019401910161304a565b6130c390835f5260205f20601f840160051c81019160208510610b9c57601f0160051c0190612e2b565b5f612ffc565b8035838112156103f8578201602081016130e38180612df9565b906001600160401b0382116103d2576130fc8a54612cd7565b601f8111613406575b505f90601f83116001146133a25761313392915f918361302f5750508160011b915f199060031b1c19161790565b88555b60018801604083013560038110156103f85760ff80198354169116179055600288016131656060840183612df9565b906001600160401b0382116103d25761317e8354612cd7565b601f8111613372575b505f90601f831160011461330e576131b592915f918361302f5750508160011b915f199060031b1c19161790565b90555b6131ca60038901916080840190612df9565b906001600160401b0382116103d2576131e38354612cd7565b601f81116132de575b505f90601f831160011461326a5760e060079560209561322c8660019a9761325e97613249975f9261302f5750508160011b915f199060031b1c19161790565b90555b60a081013560048e015560c081013560058e015501612e41565b60068b019060ff801983541691151516179055565b01960193019294612faf565b601f19831691845f5260205f20925f5b8181106132c657509560209560018661325e966132499660e096849d9a60079d106132ad575b505050811b01905561322f565b01355f19600384901b60f8161c191690555f80806132a0565b9193602060018192878701358155019501920161327a565b61330890845f5260205f20601f850160051c81019160208610610b9c57601f0160051c0190612e2b565b5f6131ec565b601f19831691845f5260205f20925f5b81811061335a5750908460019594939210613341575b505050811b0190556131b8565b01355f19600384901b60f8161c191690555f8080613334565b9193602060018192878701358155019501920161331e565b61339c90845f5260205f20601f850160051c81019160208610610b9c57601f0160051c0190612e2b565b5f613187565b601f198316918b5f5260205f20925f5b8181106133ee57509084600195949392106133d5575b505050811b018855613136565b01355f19600384901b60f8161c191690555f80806133c8565b919360206001819287870135815501950192016133b2565b613430908b5f5260205f20601f850160051c81019160208610610b9c57601f0160051c0190612e2b565b5f613105565b80600702906007820403610fb65782600702600781048403610fb657855f5260205f2091820191015b81811061346c5750612f99565b80613478600792612e4e565b5f600182015561348a60028201612e4e565b61349660038201612e4e565b5f60048201555f60058201555f60068201550161345f565b601f19821695835f5260205f20915f5b8881106134f9575083600195969798106134e0575b505050811b018155612f48565b01355f19600384901b60f8161c191690555f80806134d3565b909260206001819286860135815501940191016134be565b61353b90835f5260205f20601f840160051c81019160208510610b9c57601f0160051c0190612e2b565b5f612f15565b6001600160a01b03165f8181526002602052604090206001015460a01c6001600160401b031615613584575f52600260205260ff600b60405f20015460081c1690565b505f90565b91908110156121ec5760051b0190565b356001600160a01b03811681036103f85790565b6001600160a01b031680156135fb575f52600160205260405f20547f00000000000000000000000000000000000000000000000000000000000000008082115f146135f6575090565b905090565b507f000000000000000000000000000000000000000000000000000000000000000090565b5f198114610fb65760010190565b6136388180612df9565b90501561374c57600361364b8280612df9565b90501061372e57606461365e8280612df9565b90501161371057602081016136738183612df9565b90501561370157600a6136868284612df9565b9050106136e45760966136998284612df9565b9050116136c757508060606136af920190612df9565b9050156136b857565b630590f92760e21b5f5260045ffd5b6136d091612df9565b905063e8cbcae160e01b5f5260045260245ffd5b6136ed91612df9565b9050632eeb453960e11b5f5260045260245ffd5b63180f3baf60e21b5f5260045ffd5b8061371a91612df9565b90506301b2172960e71b5f5260045260245ffd5b8061373891612df9565b9050633fa85ca560e11b5f5260045260245ffd5b6315925f1f60e21b5f5260045ffd5b5f80808093815af13d156137b0573d6001600160401b0381116103d25760405190613790601f8201601f191660200183612457565b81525f60203d92013e5b156137a157565b6312171d8360e31b5f5260045ffd5b61379a565b5f918291829182916001600160a01b03165af13d156137b0573d6001600160401b0381116103d25760405190613790601f8201601f19166020018361245756fea2646970667358221220b4ffcbb4e6dee1e54886b77929b92058b3ac4322ae64adcc89631b7e3324ac7f64736f6c634300081c0033","linkReferences":{}},"methodIdentifiers":{"burnedFee()":"e1a267e5","getFee(address)":"b88c9148","getMod(address)":"da1ea50e","getModFee(address)":"1a0ea5b6","getModRequiredActions(address)":"fdf3c55a","getMods(address[])":"d391420d","getModsFee(address[])":"9124b8af","getSupportedHooks(address)":"d4c4b402","isUnlimitedMinter(address)":"5c77f839","listMods(uint32,uint256)":"45296b38","minBaseFee()":"a62611a2","modList(uint256)":"2071a2d2","publish(address,uint8[],uint256,(string,string,string,string,string,string,bool,bool),(string,(string,uint8,string,string,uint256,uint256,bool)[],uint256,string)[],address)":"f3f0e07b","setReferrerFee(uint256)":"f81a95db","update(address,uint256,(string,string,string,string,string,string,bool,bool))":"532efe05","updateRequiredActions(address,(string,(string,uint8,string,string,uint256,uint256,bool)[],uint256,string)[])":"55344713"},"id":4}